:10400000B240805A20013F409EF63E4000113D40A4
:1040100060140D9E0524FE4F00001E530E9DFB2BC9
:104020003F4060143D40322C0D9F0524CF430000DB
:104030001F530F9DFB2B30404A4330403E4000133E
:10404000776F726B666C6F7720746573746572003E
:10405000001100005B25752E25753A2531306C75F1
:104060005D207465737465723A3A6D61696E2829D2
:10407000203A2041667465722032353020736563C2
:104080006F6E642074696D65720A005B25752E255C
:10409000753A2531306C755D207465737465723ABC
:1040A0003A6D61696E2829203A20537461727469EF
:1040B0006E670A005B25752E25753A2531306C75C3
:1040C0005D207465737465723A3A6D61696E282972
:1040D000203A2041626F757420746F2072656769A1
:1040E00073746572206120776F726B666C6F770AEC
:1040F00000000B120B4F5E432F4F0F9323243F9072
:10410000580105248B4300003F4003005E3C4E9362
:1041100002201F435A3C3F406214B01212820F9398
:10412000F827B012A8CA0F120E125F420F2B0F12FF
:104130005F420E2B0F1230125440B0123EEE31503F
:104140000A00E03F7F400700B01298CCB012A8CA26
:104150000F120E125F420F2B0F125F420E2B0F1227
:1041600030128B40B0123EEE31500A00B012384C83
:1041700092932C14C7233F400A110F930624824FB9
:1041800060147F400700B01298CCB012A8CA0F127A
:104190000E125F420F2B0F125F420E2B0F123012C6
:1041A000B440B0123EEE31500A001F426014B0120B
:1041B0004A4C3D40007D0E433F406214B012BA812C
:1041C0004E43BB4058010000A23F3B413041B0127A
:1041D00074F4304152696D65207374617274656462
:1041E00020776974682061646472657373200025A8
:1041F000642E0025640A000021832D430E430F41E5
:10420000B01282C81F422C140F930C200D430E4D88
:104210000E513F40192C0F8DEE4F00001D532D9372
:10422000F62B063CD1422C1400008F10C14F010028
:104230000F41B0126C6B3012D441B0123EEE2153DC
:104240006F410F123012EF41B0123EEE21525F412A
:1042500001000F123012F341B0123EEE21522153F1
:1042600030415374617274696E670020272573278B
:1042700000000B120B4F30126242B0123EEE21537F
:104280008B9300000B243F4B1F12020030126B4235
:10429000B0123EEE21528B930000F5233F400A00FE
:1042A000B0124EC83B4130414D4143202530327859
:1042B0003A253032783A253032783A253032783A19
:1042C000253032783A253032783A253032783A251E
:1042D0003032782000436F6E74696B6920322E355E
:1042E00020737461727465642E20004E6F646520C3
:1042F00069642069732073657420746F2025752E9E
:104300000A0025732025732C206368616E6E656C2E
:1043100020636865636B207261746520256C75206D
:10432000487A2C20726164696F206368616E6E65E3
:104330006C2025750A004E6F6465206964206973DE
:10434000206E6F74207365742E003140F838B012FF
:1043500038C9B012F8CAB01248CC6F42B01282CC41
:104360003E4021000F43B0120CC75F43B01282CC15
:10437000B01270B4D2C3142C6F43B01282CCB012FE
:1043800002B66F42B01298CCB0128E85B012AAB8A5
:104390005F42122C1F522C14B012EE856F43B012E4
:1043A00098CCB012127A0E433F408012B012DE78E1
:1043B000B0127283B0122AB1B012F841B01284BDAB
:1043C0005B420E2B8B105F420F2B0B5F3D420E4367
:1043D0000F41B01282C83E400E2B0F41B012386B15
:1043E0005F4107000F125F4108000F125F41090093
:1043F0000F125F410A000F125F410B000F125F4165
:104400000C000F125F410D000F125F410E000F12E2
:104410003012A842B0123EEE3D4012000D510E4B3C
:104420003F40CDABB0124AC13F401A00B012D6C0D7
:104430003012D542B0123EEE315014001F422C14FF
:104440000F93B5240F123012EB42B0123EEE215200
:104450009212D47692120A7692128E6C30121A0050
:104460001B42DE768B120F939E248B123C40800001
:104470000A4FB0120EF60E4C0F430F120E1212120C
:10448000D2761212087630120243B0123EEE3F404E
:10449000307CB012EEC6B012367D5F43B01298CCBD
:1044A000B012C684B012F0CD824F9A2BD2438E2B1D
:1044B00031500C00B01256CD3F405040B012724205
:1044C0003F405040B012C47B3D40000F0E433F4080
:1044D0006E14B0124E7EB01264CDB0120C7B1F93DE
:1044E000FA37B0127CC90B4FB012287B0F935920BA
:1044F000B012DAC64F9355203F406E14B0128C7E36
:104500000F930824B01264CD3F406E14B0126A7E3F
:10451000B01288C9C2938E2B0C24B012F0CD1F822A
:104520009A2B0E4F0F43825E5C2B826F5E2BC24331
:104530008E2BB012F0CD824F9C2BD2438F2B1D427D
:104540007A111E427C112F43B0123885B01274CDFF
:104550008293302C232432D0180032C22F43B01261
:10456000EC84824E7A11824F7C1132D2B01256CD39
:10457000C2938F2B0C24B012F0CD1F829C2B0E4FB8
:104580000F43825E602B826F622BC2438F2BB0126F
:10459000F0CD824F9A2BD2438E2B9D3F32D0D80044
:1045A000DC3F02DB983F3E4080000F43663F3F40C8
:1045B0003643B01274F44C3F31523040E2F5636F31
:1045C0006D7075746174696F6E2073746174656D5C
:1045D000656E74006C6F63616C2066756E637469E0
:1045E0006F6E2073746174656D656E740073636FB4
:1045F0007065642066756E6374696F6E2073746194
:1046000074656D656E7400000B120A1209120812AF
:104610000A4F494E5F4F01004E9F192C48430B4AE9
:104620003B500300489F0E2CCA9E03000B240F4BE7
:10463000B012C6467FF30B5F5853589A0100022C04
:10464000699BF523589A0100022C0F4B013C0F4344
:10465000384139413A413B4130410B120A120912AB
:1046600008120A4F484E5F4F03004E9F0C2C0B4A16
:104670002B524943499F022C4E930720599A03001D
:10468000022C0F4B0E3C0F430C3C0F4BB0129A47C1
:104690007FF30B5F5953599A0300F02F4998F52384
:1046A000ED3F384139413A413B4130413F500300F1
:1046B00030416E4F5E9304246E9302240F433041C9
:1046C0003F50030030410B120A12091208120B4F1F
:1046D00049435F4F01003F900D00592C0F5F104F71
:1046E000E246FC46044708470047004700472C477E
:1046F0005E4736475E4736475E4766477940030068
:104700004F49463C6943FC3F69420A4B2A524843A1
:10471000589B0300F52F0F4AB0129A47495F7FF369
:104720000A5F5853589B0300F62BEA3F594B02008F
:1047300079500300E53F794003000E4B3E500300E3
:104740004D435C4B02004D9CDB2F5F4E0100495FE7
:1047500069530E5F2E535D534D9CF72BD13F594B40
:1047600003006952CD3F794003000E4B3E500300D9
:104770004D435D9B0200C42F5F4E0100495F6953AA
:104780000E5F2E535D535D9B0200F62BB93F0F4326
:10479000384139413A413B4130416E4F1E93062426
:1047A0002E930A382E9302240F4330415F4F0200AC
:1047B0007F5003007FF330410E93F827F53FCF9EE3
:1047C0000200022C0F4330410D4F3D5003005C436B
:1047D0004E9308245F4D01000D5F2D534F4C5C53E9
:1047E0004F9EF8230F4D30410B120A1209120A4F47
:1047F000494E5F4F01007F534E4F0F4AB01208469B
:104800000B4F0F931324B012C6467FF34D430E4B4C
:104810000E5F5C4A02004D9C092C699E09245F4E84
:1048200003000E5F2E525D534D9CF72B0F43013C4E
:104830000F4E39413A413B41304100003F403A4838
:1048400030417FF30F5F1F4F7E1130416576656EFB
:104850007420747970650073656E736F72006D619A
:10486000676E69747564650074696D657374616DF4
:104870007000736F75726365206E6F646500736F8F
:10488000757263652073636F706500000B120D4FC6
:104890004C436F4F3F901500422C0F5F104FA048C4
:1048A0002249CA48CA482449CE48D448F448FA485C
:1048B0002249224922492249224922491E491E49A8
:1048C00022491E492249224922497C422B3C7C40F4
:1048D0000600283C5E4D08000F4E3F500700073091
:1048E0000F110F110F114C4F7C5009001B3C3F5012
:1048F0000700F63F7C400700153C7C4003000E4D4E
:104900003E5003004B435B9D02000C2C6F4E4C5FEE
:104910000E5F1E535B535B9D0200F82B033C4C4320
:10492000013C6C424F4C3B4130410B120A120A4F82
:104930004B4E0F4D2D534C435E4F01004C9E0B2CA4
:104940006F4D4F9B0A247FF35F4F84110D5F1D5302
:104950005C534C9EF52B0F43063C7FF3DA4F8411DA
:1049600000000F4D1F533A413B4130410D4FCF43A3
:1049700000004E434F4E6C4D5C5F84114F4C5F53B3
:10498000CD4F00005E537E900600F42B7FF32F5333
:10499000B01260ED0C4F0F931524CF430000FF4081
:1049A000060001000D4F2D534E43CD4E00004F4EDB
:1049B0005F4F84110D5F1D535E537E900600F52BF3
:1049C0000F4C30410F4330410B120A120912094FAC
:1049D0004A4E0F4AB01260ED0B4F0F9306240D4A5A
:1049E0000E49B0125CC80F4B013C0F4339413A41AC
:1049F0003B4130410B120A1231820A4F0B4E0D41DE
:104A00005E4E02004F43B012C690A14F0200B0129A
:104A1000A8CA814E0400814F0600DA4B0100000055
:104A20002B530D4B5E430F4AB012AC4B0D412D532F
:104A30006E430F4AB012AC4B0D412D527E40030025
:104A40000F4AB012AC4B3D400E2B6E420F4AB012D3
:104A5000AC4B1B530D4B7E4005000F4AB012AC4BC4
:104A600031523A413B4130410B120A126A430D4F19
:104A70002D534C435B4F01004C9B0A2C6F4D5E4FF6
:104A800084115E534F4E0D5F4A5E5C534C9BF62B78
:104A90004F4A3A413B4130414576656E74202D20A6
:104AA0006368616E6E656C2069642025752C206ECC
:104AB000756D626572206F66206669656C64733A15
:104AC0002025752C207061796C6F6164206C656E97
:104AD0003A2025750A003C25752C2025733B256C52
:104AE000753E0A000B120A12091208122182094FA0
:104AF0004F4E7FF30F125F4901000F126F490F12E3
:104B00003012984AB0123EEE31520A492A534843B5
:104B100058990100242C6F4A1A53814300008143A5
:104B200002000B4F5F4F84110D4F0E4A0F41B01220
:104B30005CC85F4B84110A5F11120400111204005B
:104B40000F4B0F5F1F128A110B123012D64AB01290
:104B50003EEE31500A00585358990100DC2B215287
:104B6000384139413A413B4130410B120C4F0D4F16
:104B70002D53CF9E02000F245B4F01005B930B2847
:104B80006F4D5F4F84110F5D0D4F1D53CF9E010080
:104B900002245B93F52FCC93010002246E9D022426
:104BA0000F43023C0F4D1F533B4130410B120A1281
:104BB0004B4E0A4DB0126A4B0C4F0F9308244F4BCB
:104BC0005F4F84110D4F0E4A0F4CB0125CC83A4132
:104BD0003B413041B0126A4B30410B120A120912AC
:104BE00008120712084F0E430F43B012868E494F2A
:104BF0000A482A534F931924474357980100152C0C
:104C00006F4A1A534B4F0A123A535C4B84115D435F
:104C10004E4F4F49B012EA8F5F4B84110A5F1A530F
:104C20002153575357980100EB2B4F4937413841D7
:104C300039413A413B413041B012644DB012905D70
:104C4000B0122A5DB012D65D3041B012EE4D304147
:104C50006C6F6E67207465726D2073636865647530
:104C60006C65720073686F7274207465726D207366
:104C700063686564756C65720070726F63657373E9
:104C8000207465726D696E6174696F6E206C6973F2
:104C900074656E65720073636F7065642066756E0F
:104CA0006374696F6E2073746174656D656E7420D2
:104CB000636F6F7264696E6174696F6E2070726F7A
:104CC0006365737300000B120A125B434A431F4271
:104CD000EA11B012E47E0F930624CF9B04000C244B
:104CE0002F4F0F93FA234A9305245B537B93EE23B4
:104CF0000F43043C4F4B023C5A43F53F3A413B4182
:104D000030410B120B4F1F42DA11B012E47E0E4FEE
:104D10000F9308241F4E0200EB9F000014242E4E18
:104D20000E93F8231F42DE11B012E47E0E4F0F9354
:104D300008241F4E0200EB9F000005242E4E0E9308
:104D4000F8230F43013C0F4E3B4130410B120B4FF8
:104D50003F40FC11B0128E7D0F9302248F4B040054
:104D60003B4130411F42DA11B012DE7E1F42DE119C
:104D7000B012DE7E3F40E011B012527D1F42F611AC
:104D8000B012DE7E1F42FA11B012DE7E3F40EC11FF
:104D9000B012527D3F40FC11B012527DB012D47857
:104DA000C24F8414B012D478C24F8514B012D47894
:104DB000C24F8614B012D478C24F8714B012D47880
:104DC000C24F88140E433F409611B012DE780E4356
:104DD0003F40A011B012DE780E433F40AA11B0123E
:104DE000DE780E433F40B411B012DE7830410B1232
:104DF0000A120A4FB012024D0F9315203F40E011E6
:104E0000B0128E7D0B4F0F930E248F4A02000E4F6F
:104E10001F42DA11B0120A7F0D4B5E4284143F40EC
:104E20009611B012367B3A413B413041DF4F0600CC
:104E30000700DF4E020006000E4F1F42F611B012AF
:104E40000A7F30410B120A121A4F0400FA5306006F
:104E50000E4F3F40FC11B012D07D0D435E428714CF
:104E60003F409611B012367BCA93060023201B4A9E
:104E700002000E4B1F42DE11B012887F0E4B1F4204
:104E8000DA11B0120A7F5F4A0500B012088F0E4A8D
:104E90003F40EC11B012D07D0D435E4285143F407F
:104EA0009611B012367B0D435E4284143F4096113A
:104EB000B012367B3A413B4130410B120A120912C3
:104EC0000812041221820441094F0B4E1A4F0800A8
:104ED0000A9373246E4A5E9B030062240F4BB01248
:104EE0005A46084F6F4F1F933E242F930F382F932E
:104EF0006F200E491F42FA11B0120A7F0D495E421F
:104F000088143F40B411B012367B623C0F9360208E
:104F10000F48B012AC460B4F1F4904005F4F05000D
:104F2000B012E4945E4802000F4BB012F494844E29
:104F30000000844F0200C89301000820DA530000EB
:104F40000E491F42F611B0120A7F423C1F4904006D
:104F500004126C425D435E4801005F4F0500B012D1
:104F6000EA8F2153EB3F6E4A0F4BB0125A460B4F5C
:104F70002A530F48B012B2460D4A2A835E4B0200F4
:104F8000B012965D2F93242C1F4A0200B012B67BFC
:104F90000F931E24DA5300000E491F42FA11D33F2B
:104FA000D94906000700D94B020006001F49080036
:104FB000B01238EE89430800C33F2F42B01260EDB3
:104FC0000A4F894F08000F93BB27CF430000823F51
:104FD00021523441384139413A413B413041DF4F60
:104FE00006000700DF4E020006000E4F1F42F611BA
:104FF000B0120A7F3041DF4F06000700DF4E02008B
:1050000006000E4F1F42F611B0120A7F3041DF4FEB
:1050100006000700DF4E020006000E4F1F42F61189
:10502000B0120A7F30410B120A12091208120A4FFD
:10503000094E1F42FA11B012B27F0B4F1F42F611F8
:10504000B012B27F0B5F3F4014000F8B5E4902002D
:105050000F9E06340E4A1F42F611B0120A7F323CF0
:105060000E4A1F42FA11B0120A7F1F43B01260EDC0
:105070008A4F0800DF49020000001F4A0400DF5980
:105080000200060008435F490200089F1B341F4AC4
:105090000400B0124C4D0B4F0F490F58DB4F03006B
:1050A0000600DB4A060007008B4308000E4B1F4238
:1050B000F611B0120A7F8B4A020018535F490200B2
:1050C000089FE53B384139413A413B4130410B12A1
:1050D0000A1209120D4F094E1B4F02001A4B08000D
:1050E0001F4F0400FF5306000E4D3F40FC11B0124D
:1050F000D07DFA5300001B200F4AB01238EE8B43CC
:1051000008000E4B1F42FA11B012887F0E4B1F424F
:10511000F611B0120A7FEB490700DB4902000600D6
:105120000D4B5E4286143F40A011B012367B3941D0
:105130003A413B4130410B120A1209120812071280
:1051400006120A4F084E1F42FA11B012B27F0B4FDF
:105150001F42F611B012B27F0B5F3F4014000F8B5D
:105160005E4802000F9E57381F43B01260ED094F92
:105170000F9351248A4F08000E4A1F42FA11B012B1
:105180000A7FC94300000B483B5003004743579830
:105190000200462C064B26531F4A04005F4F0500B1
:1051A000B012E4944E475F4802003F530E9F2C24F8
:1051B0005E4B01004E9309205F4B01000B5F2B53A8
:1051C000575357980200E62B2B3C0F46B012F4942D
:1051D0000FDE0F93F1271F4A0400B0124C4DEF4B26
:1051E0000600DF4A060007008F4308008F4A0200CE
:1051F0000E4F1F42F611B0120A7FD95300001F4A0A
:105200000400DF530600D83FCB930100D123C9939C
:105210000000E127CD3F0E4A1F42F611B0120A7F6F
:1052200036413741384139413A413B413041B01272
:10523000CE5030410B120A12091208120712061240
:105240000A4F084E1F42FA11B012B27F0B4F1F4295
:10525000F611B012B27F0F5B3F90140056240E4A35
:105260001F42FA11B0120A7F1F43B01260ED094FBE
:105270008A4F0800CF4300000B483B500300064311
:105280005F480200069F4634074B27531F4A04001D
:105290005F4F0500B012E4945F4802003F53069F41
:1052A00030245E4B01004E930D205F4B01000B5FDD
:1052B0002B5316535F480200069F2C34C9930000FD
:1052C000E327283C0F47B012F4940FDE0F93ED272D
:1052D0001F4A0400B0124C4DEF4B0600DF4A060097
:1052E00007008F4308008F4A02000E4F1F42F6113D
:1052F000B0120A7FD95300001F4A0400DF53060092
:10530000D43FCB930100E427CC3F0E4A1F42F61155
:10531000B0120A7F36413741384139413A413B4169
:105320003041B012CE5030410B120A12091208124D
:1053300007120612084F074E3F400600B01260EDFC
:10534000094F884F0800CF430000CF430100CF43EF
:1053500004000A473A5003005E435643C7930200D5
:105360000A204E9304200E481F42F611243C0E489A
:105370001F42FA11203C1F4804001F4F02000B4A35
:105380002B531C4F02003D40C8535E4A01000F4B97
:10539000B01266634E4F4F930624D95301005F4A03
:1053A00001000A5F2A534F4656535F970200D92FD8
:1053B0004E93E123D83FB0120A7F3641374138413E
:1053C00039413A413B4130410B120A12091208128D
:1053D000071206120512054F1F42FA11B012E47EA1
:1053E0000A4F0F9364241F4A04001F4F02005E4AB5
:1053F00006001F4F0200B0120846094F0F93042405
:10540000FF900C00010004242A4A0A93EC234F3C2D
:10541000164A08005F4604004F93F62308493850A7
:1054200003005E435F990200EF2FE89503000A2412
:105430005F480100085F28534F4E5E535F9902009A
:10544000F42BE23FD64304000B493B500300574383
:10545000C99302001D201F4A0400B0124C4DEF48B2
:105460000600DF4A060007008F4308008F4A02004B
:10547000864F02000E4F1F42FA11B0120A7FD64328
:1054800000001F4A0400DF5306005E490200D03FBF
:105490000F4B2F530E4AB012D2635F4B01000B5FCC
:1054A0002B534F4757535F990200F22BD43F35419E
:1054B00036413741384139413A413B4130410B1285
:1054C0001B4F0800FB53010014201E4B02001F421B
:1054D000FA11B012887F1E4B02001F42F611B01263
:1054E0000A7F1D4B02005E4286143F40A011B0129D
:1054F000367B3B41304128554B55464C4F572D4547
:105500004E47494E4529206C74732C20646F6E659C
:10551000206D79206A6F622C202872656164793A67
:105520002025752F626C6F636B65643A20257529A1
:105530000A0028554B55464C4F572D454E47494E6E
:105540004529206C74732C207969656C64696E67D9
:105550002074696C6C206120776F726B666C6F775A
:10556000206265636F6D65732072656164790028E0
:10557000554B55464C4F572D454E47494E452920D2
:105580006C74732C206120776F726B666C6F772060
:10559000626563616D6520726561647921000B123B
:1055A0000A1209120A4F494E5E432F4F3F90A5043D
:1055B000A9243F90A604B02C0F9305248A43000031
:1055C0003F400300B03C1F42DA11B012B27F0F938C
:1055D00091241F42DA11B012E47E824F04120F931D
:1055E000F2274E431F4204121F4F0200B01208461A
:1055F000824F0612CF9301007520824308123F406C
:10560000EC11B0128E7D824F08120F930B204E4387
:10561000BA40B70400004E93032459928514022423
:105620001F43813C1B4208120B93E9279B42041243
:105630000200B012C64CCB4F04001B4208123E4081
:1056400000050F43B012868ECB4F05001F42081293
:10565000CF4306001E4204121F42DA11B012887FA7
:105660001E4204121F42DE11B0120A7F1F420812AE
:10567000B0124C4D824F0A120F9309204E43BA408C
:10568000C90400004E93CC2759928714C9238293F2
:105690000A12EC271F420812DF4306001E420612C0
:1056A0001F420A12EF4E06001E420A121F42F61156
:1056B000B0120A7F1D420A125E4286143F40A011BA
:1056C000B012367B1F42FA11B012B27F0F121F4286
:1056D000F611B012B27F0F123012F654B0123EEE35
:1056E000315006001F420412A24F0412829304128A
:1056F0007823693F3F403255B01274F44E43BA40AC
:10570000A50400004E938C275992841489233F40AE
:105710006F55B01274F45D3F3F90B7047C273F9003
:10572000C904B0274B3F39413A413B4130412855EC
:105730004B55464C4F572D454E47494E45292073F2
:1057400074732C2066696E69736865642079696575
:105750006C64696E672C202872656164793A202533
:10576000752F626C6F636B65643A202575290A009A
:1057700028554B55464C4F572D454E47494E4529C8
:10578000207374732C20746F6B656E206E756D6260
:1057900065722069732025752C20776665206E75EB
:1057A0006D6265722069732025752C20747970658F
:1057B0002069732025750A0028554B55464C4F57D4
:1057C0002D454E47494E4529207374732C20796925
:1057D000656C64696E672074696C6C206120746FFD
:1057E0006B656E206265636F6D65732072656164C1
:1057F00079000B120A1209120A4F494E5E432F4FCD
:105800000F930F243F90EC0405248A4300003F408F
:105810000300533C4E9303245992861402241F43E1
:105820004C3C1F42F611B012E47E824F76140F9367
:105830003B241F42FA11B012B27F0F121F42F61121
:10584000B012B27F0F1230122E57B0123EEE31500E
:1058500006001E4276141F4E04001F4F02005E4ECB
:1058600006001F4F0200B01208460B4F5F4F0100A9
:105870000F126F4B0F121F4276145F4F06000F126C
:1058800030127057B0123EEE31521E4276141F4253
:10589000F611B012887F5D4B01000D5D0E4B1F426B
:1058A00076149D12BE11BD3F3F40B857B01274F43C
:1058B0004E43BA40EC040000AD3F39413A413B4110
:1058C000304128554B55464C4F572D454E47494E74
:1058D0004529207465726D696E6174696F6E207000
:1058E000726F636573732C20626C6F636B656420E9
:1058F000746F6B656E2066696E6973686564206994
:105900007473207461736B2C2070757474696E6786
:10591000206261636B20746F20726561647920740A
:105920006F6B656E2071756575650028554B554622
:105930004C4F572D454E47494E4529207465726D91
:10594000696E6174696F6E2070726F636573732C1A
:10595000207969656C64696E67000B120A1209127E
:1059600008120712094F474E084D5E432F4F0F9301
:1059700034243F9019050524894300003F4003006B
:105980004C3C4E930324779087FF02241F43453CF1
:105990000A431F42FA11B012E47E0B4F0F932624E4
:1059A0008B93080026202B4B0B9320240A93F82777
:1059B0003F40C258B01274F40E4A1F42FA11B0129E
:1059C000887F0E4A1F42F611B0120A7F0D4A5E42CE
:1059D00086143F40A011B012367B3F402B59B012C5
:1059E00074F44E43B94019050000CB3F0A93E023FD
:1059F000F43F1F4B04001F4F02005E4B06001F4F79
:105A00000200B0120846EF930100CD231F4B08009F
:105A10008F980200C8230A4BC73F374138413941AC
:105A20003A413B41304128554B55464C4F572D4547
:105A30004E47494E4529207366732C207969656C61
:105A400064696E672074696C6C20616E2073667384
:105A5000206E6565647320746F2062652072616ECC
:105A600000000B120A12091208120712094F474EC2
:105A7000084D5E432F4F3F906A0512243F906B05FF
:105A8000BC2C0F930524894300003F400300BC3C1D
:105A90003F40265AB01274F44E43B9406A050000E4
:105AA0004E9303245792881402241F43AD3C82482E
:105AB0000C12924808000E121F4804001F4F0200EB
:105AC0005E4806001F4F0200B01208460D4F824F7D
:105AD0001012824F12121F420E126E4F0F4DB01253
:105AE0005A460E4F824F14121F420C121F4F0400D1
:105AF0001F4F02005E4E01001F4F0200B012E84728
:105B00000E4F824F16120F93C0271C4F01005D4F9E
:105B100003002E521F4214125F4F0100B012425D6B
:105B20004F93B3273D4080020E433F407814B0129C
:105B3000BA814E43B9408C0500004E93B6273F40D2
:105B40007814B01212820F93B0271F4214125F4FC5
:105B500002002F53B01260ED0B4FCF4300001F42E5
:105B60001412DB4F020001005E4F02003F500300A1
:105B70000C4B2C530D4E0E4F0F4CB0125CC81A42FA
:105B800014125F4A02006F534C4F0D4B4E435F4A55
:105B90000100B012725D3D40000A0E433F40781490
:105BA000B012BA814E43B9409C0500004E937D2748
:105BB0003F407814B01212820F9377271F421412BD
:105BC0005F4F0100B012685D1F420E12DF530000EC
:105BD0001E420C121F42FA11B012887F1E420C1294
:105BE0001F42F611B0120A7F1D420C125E4286144B
:105BF0003F40A011B012367B4B3F3F908C059D2754
:105C00003F909C05D3273F3F3741384139413A41C6
:105C10003B413041304130417F900B000F247F9059
:105C2000160008247F902100012430416F43B012F8
:105C300082CCFB3F5F43B01282CC30416F42FB3FCE
:105C40000B124B4F7F900B000C247F901600072403
:105C50007F90210008206F43B01298CC043C5F4332
:105C6000FB3F6F42F93F4F4BB012BE633B413041A7
:105C7000284E45542D4D475229206D73672072657B
:105C80006365697665642C20005D0025752C000035
:105C90000B120A12091208120B4E494D3012705C99
:105CA000B0123EEE21533F405B00B0124EC80A4393
:105CB00048490A9828383F40895CB01274F46F4B09
:105CC0001F931A242F930E382F9307243F9003001D
:105CD00027200F4BB012A060233C1B530F4BB01278
:105CE0005C601E3C0F931C200D435E4B01002B5348
:105CF0000F4BB012965D143C79531B534E490F4B1A
:105D0000B012A45F0D3C0F4B0F5A6F4F0F123012A1
:105D10008B5CB0123EEE21521A530A98F43BCB3FF3
:105D2000384139413A413B4130413E405A133F40AE
:105D30004413B01252953E4018125F43B012BA9508
:105D400030410B120A120B4E0C12701203004D124E
:105D50000C4B4D4F4E435F43B01232967FF33150A0
:105D600006003A413B4130414E4F5F43B012189715
:105D700030410B120A124A4F4B4E4C120C4D4D4BF8
:105D80004E4A5F43B012649721533A413B41304140
:105D9000B01220B130410B120B4F4F4E7FF30C4D20
:105DA0000D430E4F0F4BB0123EAA3B41304173756D
:105DB00062736372697074696F6E2070726F63656D
:105DC0007373007075626C69736865722070726FAE
:105DD0006365737300001F422C12B012DE7E1F42F7
:105DE0002812B012DE7E1F422412B012DE7EB012E4
:105DF000D478C24F0B16B012D478C24F0C160E4393
:105E00003F402E12B012DE780E433F403812B012DF
:105E1000DE7830410B124B4F1F422812B012E47E45
:105E20000E4F0F930D241F4F0400CF9B0100082439
:105E30002E4E0E9305241F4E0400CF9B0100F82325
:105E40000F4E3B4130410B120A1209120812084F43
:105E5000494E0B4D0A4C3F401E00B01260ED0F93AF
:105E60000A24CF4302008F4B1A008F4A1C00CF49EF
:105E700003008F480400384139413A413B413041E9
:105E80000B120A12091208120712074F484E3F4020
:105E90001A00B01260ED0B4F0F93232449480F49AD
:105EA000B01260ED0A4F0F9319240D490E47B0123E
:105EB0005CC8DB430200CB4803008B4A04000F4B55
:105EC0003F5006001A530A123C405C603D4000B44B
:105ED0000E43B0128A830F4B2153043C0F4BB01278
:105EE00038EE0F433741384139413A413B41304167
:105EF0000B120B4F1F422C12B012E47E0F930A2498
:105F00001E4F18000E930324EB9E000005242F4F14
:105F10000F93F6230F43043CDE9B01000100F7239F
:105F20003B4130410B120A120A4F3F401A00B01297
:105F300060ED0B4F0F930F24DF4208160200D24A88
:105F4000010008168F4A18000E4F1F422C12B01283
:105F50000A7F0E4B013C0E430F4E3A413B4130410C
:105F6000284556454E542D4D4752292068616E6490
:105F70006C696E6720737562736372697074696FA0
:105F80006E3A20005D00284556454E542D4D47522F
:105F900029206E756D2072656F3A2025750A0025DF
:105FA000752C00000B120A1209120812094F484EF4
:105FB0003012605FB0123EEE21533F405B00B012E2
:105FC0004EC80B434A480B9A37383F40845FB012A3
:105FD00074F45F490100B012145E0B4F0F931F243D
:105FE000DF93020017240B933424C24308161F4288
:105FF0002C12B012B27F0F123012865FB0123EEE3A
:1060000021526F490F5F1E4F56121F4B04009E1204
:1060100002001F3C3F500600B012F683E43F4E489A
:106020000F49B012805E0B4F0F9313240E4F1F4287
:106030002812B0120A7FD73F0F490F5B6F4F0F1224
:1060400030129F5FB0123EEE21521B530B9AF43B6D
:10605000BC3F384139413A413B4130410B126F4F0F
:10606000B012145E0B4F0F9319241F4F04006E4F94
:106070000E5E1E4E56129E1204000E4B1F42281238
:10608000B012887FDB93020004240F4BB01238EE6D
:10609000053C1F4B0400B01238EEF73F3B41304146
:1060A0002F530D4F5E420C163F403812B012367B14
:1060B0003041284556454E542D4D4752292067659D
:1060C0006E65726174696E67206576656E742066B0
:1060D0006F72206368616E6E656C2025752C206C74
:1060E000656E2025750A00000B120A120912218321
:1060F0000A4F1B4F18000F41B0126C49094F0E4B4D
:10610000B012F4496F410F121F4A18005F4F01008F
:106110000F123012B260B0123EEE315006000D493F
:106120005E420C163F403812B012367B2A520F4A9C
:10613000B012F683215339413A413B413041284561
:1061400056454E542D4D47522920706572696F6433
:1061500069632067656E657261746F7220696E692C
:10616000742C207365742074696D65722025750A1E
:1061700000000B120A1209120B4FC24309165F4F9F
:106180000300B012FC964F9340245F4B0300B01203
:106190000A974F933A200F4BB012F05E094F0F93BE
:1061A0002F244F43099301245F43C24F09164F9395
:1061B0002C24D24B03000A16C9430200D24B010023
:1061C00008161B12040030123E61B0123EEE21523E
:1061D0001E4B04000F430A4E0B4F3C4080000D4302
:1061E000021232C2B012E6F5324109123C40E860B8
:1061F0000D4E0E4F29520F49B0128A832153053C90
:106200000F4BB012245F094FCC3F39413A413B411B
:1062100030410B12B012F05E0B4F0F930B242F5234
:10622000B0126A840E4B1F422C12B012887F0F4BA3
:10623000B01238EE3B4130410B120B4FB0128C487C
:106240007FF30D4B0D5F6F4D0F5F1E4F56120F4DBD
:106250009E120200C293091606205F420A16B0126F
:106260000A974F9318240F4BB012F05E0F930F2430
:106270004E430F9301245E43C24E09164E930B24E6
:10628000DF4208160200D24B01000816043C0F4BF7
:10629000B012245FED3F3B4130410B12B012F05E73
:1062A0000B4F0F9306242F52B0126A840F4BB0127B
:1062B00038EE3B4130410B120A1209120812071244
:1062C00006120512094F054E484D164F18005E4341
:1062D000074F375003004A435A96020015284E9341
:1062E000252468534E480F45B012C8490E4F1F4928
:1062F0001800DE4F010000000D4E5E420C163F40BC
:106300003812B012367B123C6B470E453F402A498B
:10631000B012EA944E4B0F471F53B012F4945A53E5
:106320004E9304245A960200EF2BD93F3541364153
:106330003741384139413A413B4130410B120B4F13
:106340001C4F1C001D4F1A005E4F03001F4F04001E
:10635000B01266634F9305203B5006000F4BB012FE
:10636000F6833B4130410B120A12091208120B4FFF
:106370004A4E094D084C3F400C00B01260ED0E4FE4
:106380000F931724CF4302008F4B0400CF4A06001F
:106390008F4908008F480A001F422412B0120A7F5A
:1063A0000D435E420B163F402E12B012367B1F4348
:1063B000013C0F43384139413A413B4130411F4292
:1063C0002812B012E47E0F9303242F4F0F93FD2366
:1063D00030410B120A120B4F0A4E3F42B01260EDD1
:1063E0000E4F0F931324DF4302008F4B06008F4A9A
:1063F00004001F422412B0120A7F0D435E420B16A6
:106400003F402E12B012367B1F43013C0F433A41EE
:106410003B413041284556454E542D4D4752292089
:1064200070726F63657373696E6720756E737562E2
:10643000736372697074696F6E20666F722063682F
:10644000616E6E656C2025750A00284556454E54D0
:106450002D4D4752292070726F63657373696E67A3
:1064600020737562736372697074696F6E20666FF2
:10647000722065762E206368616E6E656C202575CE
:106480000A004552524F5220735F692025702C201C
:106490007369642025750A00284556454E542D4DD4
:1064A00047522920726571756573742D68616E6439
:1064B0006C65722C207969656C64696E67207469FB
:1064C0006C2028756E2973756273637269707469C4
:1064D0006F6E207265717565737400000B120A127D
:1064E00009120A4F494E5E432F4F3F90A603EF24F7
:1064F0003F90A70302283040FE683F9073030220BC
:106500003040E8683F90740302283040F4680F93ED
:1065100006248A4300003F40030030402469E243E0
:10652000E6151F422412B012E47E824FDA150F9353
:10653000D3255D4F02004D939E245D93F223824F3D
:10654000DE151F4F06005F4F01000F12301214645A
:10655000B0123EEE21521F42DE151F4F06005F4F64
:106560000100B012145E824FE0150F9304245B4FBC
:1065700002004B930B241E42DE151F422412B01260
:10658000887F1F42DE15B01238EECB3F824FE215F6
:106590003F500600B0126A841E42E2151F4E0400EE
:1065A000D24F0100E715C243EE15924E0400E815E4
:1065B0005B9E0300172C1F42E815FF9007000000A8
:1065C0001F281F42E815B0128C485E42EE154E5F40
:1065D000C24EEE157FF3825FE8151F42E2155E9F03
:1065E0000300E92B1F42E2151F4F04001F53B01296
:1065F0005C601F42DE151F4F0400B012BE54BB3F4B
:10660000824FEA156C433D40E6154E435F4F030051
:10661000B012725D3D4080020E433F40FC15B01247
:10662000BA814E43BA403C0400004E9302201F43FF
:10663000793D3F40FC15B01212820F93F8271F429C
:10664000EA155F4F03004F93BC27B012685D3D40D1
:1066500080020E433F40FC15B012BA814E43BA404F
:106660004C0400004E93E3273F40FC15B012128209
:106670000F93A723DC3F824FDC151F4F04005F4FB1
:1066800001000F1230124A64B0123EEE2152C24392
:10669000EF151F42DC151F4F04005F4F0100B012C1
:1066A000145E824FE0150F9306251F42E0150F93ED
:1066B0000324CF93020014243D4080020E433F4048
:1066C000FC15B012BA814E43BA40950300004E93B8
:1066D000AE273F40FC15B01212820F932223A73F32
:1066E000824FE2155F4F03001F53B01260ED824FDF
:1066F000E4150F93D0241E42E2151F422812B01257
:106700000A7FC293EF15C0241F42E2150F123C40CE
:106710003C633D40003C0E433F500600B0128A836C
:1067200021531E42DA151F422412B012887F1F42E5
:10673000DC15B01238EE1F42E415DF4300001E42A4
:10674000E2155F4E03001C42E4151C530D4F1E4E14
:1067500004000F4CB0125CC8C243EE151F42E21594
:10676000924F0400E815CF9303003D241F42E81523
:10677000FF9007000000282C824FEA155F4F0300AE
:106780004F933C201F42E2155F4F03005F534C4F75
:106790001D42E4154E431F42EA155F4F0300B0123D
:1067A000725D3D4080020E433F40FC15B012BA813D
:1067B0004E43BA40FA0300004E9339273F40FC1580
:1067C000B01212820F9333271F42E815B0128C4883
:1067D000C25FEE157FF3825FE8151F42E215D29F7C
:1067E0000300EE15C32B1F42E2155E4F03001F4F3F
:1067F0000400B012A45F1F42E415C53EB0120A9710
:106800004F93C0231F42EA155E4F03001F42E2155B
:106810001F4F1C00B012E8470E4F824FEC150F932C
:106820000D241C4F01005D4F03002E521F42EA153C
:106830005F4F0300B012425D4F9312201F42EA15D2
:106840005F4F03000F121212EC1530128264B01267
:106850003EEE315006001F42E415B01238EEBD3F47
:106860003D4080020E433F40FC15B012BA814E43BA
:10687000BA40E30300004E93DA263F40FC15B01205
:1068800012820F937F23D33E1F42E2153F50060032
:10689000B012F683463F1F42E215B01238EE3D407B
:1068A00080020E433F40FC15B012BA814E43BA40FD
:1068B000A60300000C3F1F42DC151C4F0A001D4FB1
:1068C00008005E4F06001F4F0400B012465E824F64
:1068D000E015D243EF15E93E3F409864B01274F4DE
:1068E0004E43BA40730300004E93A12659920B16F3
:1068F0009E22173E3F909503EA26304012653F9056
:10690000FA035A273F90FB03052C3F90E303B3277C
:10691000304012653F903C0488263F904C04A226EC
:106920003040126539413A413B4130412845564596
:106930004E542D4D475229205075626C6973686919
:106940006E6720746F2073636F70652025752C202F
:106950006576656E745F7061796C6F61645F6C659C
:106960006E2025750A00284556454E542D4D475238
:1069700029206576656E74207265616368656420A0
:10698000726F6F742C206E6F74696679696E672000
:10699000636F6E73756D65722000284556454E54C1
:1069A0002D4D47522920666F7277617264696E6758
:1069B00020746F20706172656E7400000B120A12F1
:1069C0000912081207120612084F464E074D5E4381
:1069D0002F4F0F9364243F908E04052488430000BA
:1069E0003F400300A13C4E93032456920C16022410
:1069F0001F439A3C8247F0150F47B012684A4A4F2E
:106A00001F422C12B012E47E824FF2150F930E2417
:106A10001B42F2151E42F015EB9E020079241F4224
:106A2000F215A24FF2158293F215F2237E40050073
:106A30001F42F015B012D44B824FF415494A6983B6
:106A40004E491F42F015B012E44A4B4A2B830B12F9
:106A50002B531F42F4156F4F0F1230122C69B012D6
:106A60003EEE315006001F42F4156F4FB0120A97E8
:106A70004F931A243F406669B01274F41F42F01518
:106A80006F4FB012145E0D4F824FF6154E491F42E4
:106A9000F0159D121A001F42F015B01238EE4E4349
:106AA000B8408E0400009F3F3F409A69B01274F4D2
:106AB0004F4A6F53C24FF8157FF3B01260ED824F0B
:106AC000FA150F93E8270B9303240F4B3F53FE2334
:106AD0004F4A1C42FA152C530D4F1E42F0150F4C15
:106AE000B0125CC81F42FA15FF4003000000CF49F6
:106AF00001005C42F8151D42FA155E431F42F41571
:106B00006F4FB012725D1F42FA15B01238EEC33FDC
:106B10001F4B18006F4F0F5F1C4F56124D4A6D836D
:106B20000F4B9C1206007B3F3641374138413941BB
:106B30003A413B41304100000D4FED4E0000DD4E2B
:106B40000100010030410B120B4F0C4E4D434F4DD5
:106B50000E4B0E5F0F5CEF9E000005205D536D93A2
:106B6000F62B1F43013C0F433B4130410E4F3F404A
:106B70000E2BB012386B30410E4F1F426412B01210
:106B80000A7F30410E4F1F426412B012887F30419D
:106B90000B120A129253162B8263182BB012F47048
:106BA0000A4F1F426412B012E47E0B4F0F930A2467
:106BB0001F4B02000F930C200F4BB012DC7F0B4FCA
:106BC0000F93F6230A9306240F4AB012CE70023CAC
:106BD0008F12F23F3A413B413041B0121089B0125E
:106BE0009E86B012926CB2400876102BB012EE70F6
:106BF000301207003012000803123012001E3D4010
:106C000000040E432F43B0128C6F315230410B12EF
:106C10000A1209120812084F0A4E094D1F42641247
:106C2000B012E47E0B4F0F930E241E4B04000E9304
:106C300007200F4BB012DC7F0B4F0F93F623033C62
:106C40000F4A8E12F63F0D490E4A0F48B012D67009
:106C5000384139413A413B4130410B120B4F92537D
:106C6000122B8263142BB01204710F9302200F4376
:106C7000083CB012F4860E4B3F400E6C92120C761C
:106C80001F433B41304152696D650000866CDA6BF1
:106C9000906B1F426812B012DE7E30410B120A1256
:106CA0000B4F0F4E8B4F0200CB4308008B4D06005D
:106CB0000E4B1F426812B0120A7F1A4210160A9336
:106CC0000A2453120C431D4B04005E4B08001F4B5B
:106CD00002008A1221533A413B4130410E4F1F427C
:106CE0006812B012887F30410B12CF4308001B425C
:106CF00010160B93082443120C430D434E431F4FB1
:106D000002008B1221533B4130410B120D4E1C4FA0
:106D10000400DF4308008F4E04001B4210160B9343
:106D2000062443125E431F4F02008B1221533B4146
:106D300030410B121B4210160B930A2453121C4FA6
:106D400004000D4C5E4F08001F4F02008B122153B0
:106D50003B4130411E420E160E93012030418E12EF
:106D6000FD3F824F0E163041824F101630411F42B8
:106D70006812B012E47E30410B120A120912081296
:106D8000084F0A4E094D1F426812B012E47E0F935D
:106D900010248F9A02000524B012DC7F0F93F92390
:106DA000083C1B4F06000B9304240C490D4A0E4867
:106DB0008B12384139413A413B4130410B12B012FC
:106DC0009E86B0122A880B4F8F430000B0126E6D62
:106DD0000E4F0F930324CF9308000E202F4B0F5F0D
:106DE0000F5F2F53B01224888B9300001F243F4065
:106DF0001216B01280701A3C2F4B0F5F0F5F0F5BA3
:106E00009F4E020002002F4B0F5F0F5F0F5B9F4EE4
:106E1000040004009B5300000F4EB012DC7F0E4FA5
:106E20000F93DC27CF930800E723D83F3B41304145
:106E300061646174612E6E756D20776179206F7564
:106E4000742074686572653A2025640A00000B128C
:106E50000A12091231800600094EB0122A882D4309
:106E60000E4F0F41B0125CC82E410F4E12C30F10CF
:106E70000F113F900300272C0A430A9E2A2CB012C0
:106E80002A880B4A0B5B0B5B0F5B2F532D430E4F76
:106E90000F412F53B0125CC8B0122A880F5B2F52DB
:106EA0000B412B532D430E4F0F4B2F53B0125CC889
:106EB0001D4B02001E4102000F49B012786D1A539B
:106EC0002A91DD2B063C0E123012306EB0123EEECF
:106ED00021523150060039413A413B413041304165
:106EE0000B120A12091208123B40521603123C40C0
:106EF000326F3D4B3E4B2B823F403216B0128A839D
:106F0000B012F4850E4F0F433A4B2B4B0C4E0D4FE6
:106F1000B0122AF603123C40BC6D0D4E0E4F3F409E
:106F20001E16B0128A832152384139413A413B4101
:106F300030410B120A121E4252161F4254160E5EA8
:106F40000F6F1A424E161B4250160C4A0D4B0C8EF8
:106F50000D7F022C0E4A0F4B824E5216824F541652
:106F6000B012E06E3A413B4130412F430F51DF9365
:106F700000000124304192424616521692424816B1
:106F80005416B012E06EF63F4E6EDE6E0B120A1211
:106F900009120812071206123C400E000C510A4D4D
:106FA0000B4E384C394C2C82164C0400174C060002
:106FB0003D40886F0E4F3F401216B0125070824A0B
:106FC0004616824B481682484A1682494C1682461B
:106FD0004E16824750163F406A6FB012686D3641B8
:106FE0003741384139413A413B4130413F40321607
:106FF000B0126A843F401E16B0126A843F401216D7
:10700000B0127A7030411E4252161F42541630415F
:10701000181000000B1221830B4F3E40B22B0F4182
:10702000B012386B1D4B0A000E410F4BAD122153AD
:107030003B4130410B120B4F1F4F0A001C4F020007
:107040000C9302240F4B8C123B413041147034706E
:107050000B120A1209120B4F094E0A4D3D404C709B
:10706000B0129C708B4A0A003E4010700F49B0125B
:10707000307139413A413B413041B012C270304128
:107080000B120B4F3E400E2B3F40B22BB012386B11
:107090000F4BB012C8703B41304100000B120A1276
:1070A00009120B4F094E0A4DB01254718B4A080059
:1070B0003E409A700F49B012307139413A413B411C
:1070C0003041B01264713041B0125A6C30411E4FE1
:1070D0000800AE1230410B120B4F1F4F08001C4F1F
:1070E00002000C9302240F4B8C123B413041B01232
:1070F00026713041921274750F930324924F02004F
:10710000BC2B30410B120B4F92127675924B020042
:10711000BC2B0F9302241F43013C0F433B413041E2
:107120009212787530411F426C12B012DE7E3041EF
:107130000B120A120A4EB01270710B4F0F930724F4
:107140008F4A04000F4AB0122071CB4F06003A411B
:107150003B4130418F4E02000E4F1F426C12B01265
:107160000A7F30410E4F1F426C12B012887F3041AF
:107170000B120B4F1F426C12B012E47E0F930724C8
:107180008F9B02000524B012DC7F0F93F9230F437D
:107190003B4130410080C0E0F0F8FCFEFF000B12E4
:1071A0000A1209120812094F0A4E084D3C9219346E
:1071B0006F4E8F105E4E01000FDE0D9303240F5FA4
:1071C0001D83FD238F105FFC94717FF33E420E8C74
:1071D0000E93042412C30F101E83FC23C94F00001A
:1071E000523C0D9320200B430F4C0C9319380F1178
:1071F0000F110F110B9F08340E490E5B0F4A0F5BE6
:10720000EE4F00001B53F03F3CF007003C24095BAD
:107210000E4A0E5B6F4E8F105E4E01000FDED23FA6
:107220003F500700E43F0B430F4C0C9329380F11DC
:107230000F110F110B9F17340D490D5B0E4A0E5B9A
:107240006F4E8F105E4E01000FDE0E480E9303242A
:107250000F5F1E83FD238F105E429C714EFFCD4E4B
:1072600000001B53E13F3CF007000D24095B0E4A70
:107270000E5B6F4E8F105E4E01000FDE0D489D3F7E
:107280003F500700D43F384139413A413B413041FA
:107290000E4F0D43CF93000007245F4E01000D5F9A
:1072A0002E53CE930000F9230F4D30410B120A12DA
:1072B000091208120A4F084E094D3C9212346E4DC5
:1072C0000F483FE30F8C3F5011000F9303240E5ED5
:1072D0001F83FD230F4E8F10CADF0000CADE01009E
:1072E000613C0E9332200B430F4C0C932B380F1143
:1072F0000F110F110B9F08340E4A0E5B0F490F5BE5
:10730000EE4F00001B53F03F3CF007004B240D4AAA
:107310000D5B095B6F493E420E8C0E9303240F11E7
:107320001E83FD234E4F3F4010000F8C0F9303240C
:107330000E5E1F83FD230F4E8F10CDDF0000CDDECC
:107340000100303C3F500700D23F0B430F4C0C93E1
:1073500026380F110F110F110B9F16340D4A0D5BBC
:107360000F490F5B6E4F0F483FE33F5009000F93EB
:1073700003240E5E1F83FD230F4E8F10CDDF000010
:10738000CDDE01001B53E23F3CF007000B240D4A09
:107390000D5B095B6F490E480E8C3E52BE3F3F505D
:1073A0000700D73F384139413A413B4130410B1248
:1073B0000A1209120812071221830A4F5F4F0600B2
:1073C0004E4F12C34E104E114E114B4E7FF0070020
:1073D00001241B530F4B2F53B012DE870F93022053
:1073E0000F434D3CB01238880E4FDF4A02000000B8
:1073F0001F4A02008F10CE4F0100B0123888074F8D
:1074000027530D4B0E430F47B01282C809431A4A47
:107410000400CA9300002024584A01000F49099330
:107420002B380D4F0D110D110D116F4A7F90180063
:1074300015287FF30F5F3F50822B0E493EF0070067
:107440000B470B5D0C480D4F0F4BB012AC72095837
:107450002A53CA930000E0231F43113C7FF30F5FC0
:10746000914FBA2B00000F493FF007000B470B5D0F
:107470000C480D410E4FE83F3F500700D23F2153CB
:107480003741384139413A413B4130410B120A12F0
:107490000912081207122182B0122A880B4F2F43BB
:1074A000B0120A880F9302200F435D3C5F4B01002E
:1074B0008F106E4B0F5EB0127071084F0F93F42750
:1074C000B0122A88074F5F4806004E4F12C34E1075
:1074D0004E114E117EF37FF0070001241E530F4E14
:1074E000B0120A880F93E0270A431B480400CB938D
:1074F00000002224594B01000F4A0A9331380E4FE5
:107500000E110E110E11FB901800000017280F4AE3
:107510003FF007000E570C490D4F0F41B0129E71FE
:107520006F4B0F5F3F50822B0E41B012386B0A59E0
:107530002B53CB930000DE230F48153C8143020000
:107540000F4A3FF007000E570C490D4F0F412F53C4
:10755000B0129E716F4B0F5F9F410200BA2BE73F45
:107560003F500700CC3F21523741384139413A4121
:107570003B4130418C74AE7390720B120C4F0B4E2A
:107580006F4F8F105E4C01000FDE0B9303240F5FD3
:107590001B83FD238F105FFD94717FF33E420E8DA0
:1075A0000E93042412C30F101E83FC237FF33B4170
:1075B00030410B120A120B4F0A4E4F4D4E4F3AE319
:1075C0000A8C3A5011000A9303240E5E1A83FD239D
:1075D0000F4E8F10CBDF0000CBDE01003A413B4164
:1075E00030419212D67630419212906C3041921214
:1075F000DA7630419212DC7630410F43304130412F
:107600006E756C6C6D6163000076FE75E275E875F1
:10761000EE75F475FA750B120A120912094F0A4E2B
:107620003E400E2B3F40B22BB012386B9212D078F6
:107630000F9303203D400500173CB0128A880B4F82
:10764000B01238880E4B9212D6BA1D432F930C24D9
:107650003F90030005340D430F9306242D42043C54
:107660002D433F900300FA231C430E4A0F49B012EA
:10767000E07639413A413B4130419212D2780F9342
:10768000012030413E400E2B3F40B42BB012466BE0
:107690000F9308203E40366B3F40B42BB012466B30
:1076A0000F93EF2792120E76EC3F9212E0BA304120
:1076B0000F9303249212E0BA30419212E2BA3041A1
:1076C0000F433041B012AA7630416E756C6C726413
:1076D0006300CA76C47616767A76AA76B076C076D5
:1076E0000B120B4F0F4E0E4D0B9302240D4C8B12B1
:1076F0003B413041CDABCDAB6F9312243D420F4D9A
:107700003D531F9309380F4E0F5DFF930000062075
:107710000F4D3D531F93F7371F4330410F43304107
:107720002D43ED3F0B120A12318034003D403400EE
:107730000E430F41B01282C8C2936E126E24D14321
:107740000000C1430100D142DE2B02003E40366BF7
:107750003F40B42BB012466B0F935B24C143030030
:10776000C1430400C14306001F42CE2B0F934624A1
:10777000C14F0800E1430700B140CDAB0A003E40D5
:10778000366B3F40B42BB012466B0F932D24E14370
:107790000500F1430C00F1430D00B140CDAB1400E6
:1077A0003E400E2B0F413F501600B012386BB01206
:1077B0002A88814F3000B0127888C14F32000F41C3
:1077C000B0127ED24B4F4A4F0F4AB012DE870F9352
:1077D00002200F43293CB01238884D4B0E4F0F4109
:1077E000B012A6D20F4A203C3E40B42B0F413F506E
:1077F0000C00B012386BE1430500CF3F5F425816D2
:10780000C14F0800D2535816C24FCE2BC243CF2BC4
:10781000B13FD142D02B0300A33FD2436E12B0122E
:10782000F485C24F58168B3F315034003A413B41EA
:1078300030410B120A1231803400B01278880B4F9D
:10784000B0122A880D414E4BB01218D44F9302202B
:107850000F43393C5F4132000E4B0E8F0F4EB0127A
:107860000A880F93F527C193050011241F410A00D0
:107870003F90CDAB02243F93EB230A413A500C00DA
:107880000E4A5F410500B012F8760F9316240E41A0
:107890003E5016003F40B22BB012386BD24102006E
:1078A000DE2BC243DF2BD2410800D42BC243D52BA1
:1078B0005F4132000B8F0F4B063C0E4A3F40B42B0A
:1078C000B012386BE43F315034003A413B41304113
:1078D000247732785F426316D253631630410D4EDF
:1078E0001C4270120C9F16240C9305242C4C0C9FE8
:1078F00011240C93FB230C9F0D249F427012000057
:10790000824F7012DF4308008F4306007E4081FFE4
:10791000B0128A7B30410B120A12091208120A4F68
:10792000094E184272121B4270120B9F08240B93CF
:1079300043242B4B0B9A03240B93FB233D3C0B93CB
:107940003B240F4AB012B67B0F932024CA43080091
:107950001B4270120B930B240A9B06240D4A7E4097
:1079600087FF0F4BB012C2792B4B0B93F5231C4AA8
:1079700004000C930B240A990924824A72120F4ABC
:107980003F5006000D437E4083FF8C121F42701251
:107990000A9F0F240B4F0F9306242F4B0F9A062498
:1079A0000B4F0F93FA2382487212063CAB4F000034
:1079B000FA3FA24A7012F73F384139413A413B4100
:1079C00030410B120A120B4F4A4EDFB30800192444
:1079D0001C4F04000C931524824F7212EF430800D1
:1079E0003F5006008C128F112F832F9306287A9018
:1079F00083FF0324DB430800043C0E4B0F4BB01203
:107A000016793A413B4130411E427212B01216794A
:107A10003041F2408AFF6316C2436516C2436416C2
:107A2000C2435A2B824370128243721230410B12AE
:107A3000C24396161B4270120B931224CB9309007B
:107A400004202B4B0B93FA230B3CDB430800CB4366
:107A500009000D437E4082FF0F4BB012C279F13F07
:107A60003B4130415C4264164C933C245D426516B8
:107A70000F4D0F5F0F5D0F5F3F506616E24F5A16B6
:107A8000924F02005C16924F04005E160F4D1F537A
:107A90000E4F39303EF0F8014F8EC24F65167C53C1
:107AA000C24C64161F425E160F931D209242701244
:107AB0006016829370121624C293961610201D42EF
:107AC0005C165E425A161F426016B012C2791F42FF
:107AD0006016A24F601682936016EE233041B012FA
:107AE0002E7AED3F3041F29081FF5A1609241D4253
:107AF0005C165E425A161F425E16B012C279F23F01
:107B0000DF430800F43F3E500700C43FC29396167F
:107B10000224B0122E7AB012647A5F4264165E427A
:107B200096167EF30F5E30415F4264165E429616F3
:107B30007EF30F5E30410B120A120A4F4B4E5C422D
:107B400064167C921E245F4265164F5C7FF007002E
:107B5000C24F62164E4F0F4E0F5F0F5E0F5F3F50CA
:107B60006616CF4B00008F4D02008F4A04005C5315
:107B7000C24C6416C29C5A2B022CC24C5A2B0F4387
:107B8000013C1F433A413B4130410B121B427212F0
:107B9000B012C279824B72123B4130410E4F0F93AB
:107BA00009245F4F08007F536F93042CDE430900C4
:107BB000D243961630410E43CF93080001241E4352
:107BC0000F4E30410B120A120B4F0A438F930000E5
:107BD0000E240F4A0F5F0F5B0E432F4FB012DE785B
:107BE0001A530F4A0F5F0F5B8F930000F2233A4145
:107BF0003B4130410B120A120B4F0A438F93000096
:107C00000D240F4A0F5F0F5B2F4FB012087A1A53E3
:107C10000F4A0F5F0F5B8F930000F3233A413B4104
:107C2000304153657269616C2064726976657200D7
:107C30004E4F7F900D002024C2937E1214247F901B
:107C40000A0006243F407412B0129C7B1F4330414F
:107C50007E400A003F401A17B0120E860F93F2279B
:107C6000C2437E12EF3F3F401A17B0120E860F93A9
:107C7000E923D2437E12E63F0F4330410B120A1232
:107C80000B4F4A4E5E432F4F3F9068004A243F906F
:107C900069004A2C0F9305248B4300003F400300EA
:107CA000473CB012D478C24F5B2B824318173F4039
:107CB0001A17B0124C863F9330243F900A000A24D2
:107CC0001E4218173E907F00F237CE4F98169253FF
:107CD0001817ED3F3F4098161E4218170E5FCE430F
:107CE0000000925318170D4F5E425B2B0F43B012EA
:107CF000367B0D437E4085FF1F427212B012367BE9
:107D00000F93D3234E43BB407A0000004E930324CD
:107D10007A9085FFCA271F430B3C4E43BB40680047
:107D200000004E93C423F73F3F907A00EF27B43F03
:107D30003A413B4130417D4080FF3E4020173F406B
:107D40001A17B012FA850E433F407412B012DE7853
:107D500030410B120B4F1D4F02000E431F4F04000A
:107D6000B01282C82F4B1E4B0200021232C20343D4
:107D7000824F3201824E38011F423A0132410D4F8B
:107D80000E431F4B0600B01282C83B4130410E4FDC
:107D90000D431C4F02000D9C092C1F4E04000F5D6B
:107DA000CF93000005241D530D9CF72B0F4330414A
:107DB000DF4300002F4E021232C20343824D3201D4
:107DC000824F38011F423A0132411F5E06003041A6
:107DD0000B120B4E1D4F06000C431E4F02000C9E53
:107DE000062C0D9B06242D5F1C530C9EFA2B3F4343
:107DF0000E3C1D4F04000D5C6E4D5E9303387E53A8
:107E0000CD4E00001F4F04000F5C6F4F8F113B41A0
:107E100030410B120A120D4F0B4E0A431C4F060045
:107E20000E9C11281F4F02002E4D021232C2034336
:107E3000824F3201824E38011F423A0132410F5CBB
:107E40000B9F012C1A430F4A3A413B4130410B1220
:107E50000B4F8F4D04008F4E0600B012A8CA8B4EF8
:107E600000008B4F02003B4130419F5F0400000047
:107E70009F6F0600020030410B120B4FB012A8CAD0
:107E80008B4E00008B4F02003B4130410B120A1217
:107E90000B4FB012A8CA3E8B3F7B2B821E530F6341
:107EA0000A431C4B04001D4B06000C8E0D7F012C59
:107EB0001A430F4A3A413B4130410B120A123A4FE2
:107EC0003B4F2F821A5F04001B6F0600B012A8CA36
:107ED0000A8E0B7F0E4A0F4B3A413B4130418F4394
:107EE000000030412F4F30410D4FAD4E000030416A
:107EF0002F4F0F9302200F4330418F930000042433
:107F00002F4F8F930000FC2330410B120A120A4FAF
:107F10000B4EB012887F8B4300000F4AB012F07EE8
:107F20000F9303248F4B0000023C8A4B00003A4120
:107F30003B4130410B120A120A4F0B4EB012887FA0
:107F4000AB4A00008A4B00003A413B4130410E4FA2
:107F50002F4F0F9302200F4330412D4F0D930A24D2
:107F60000E4F8D93000005242E4E2F4E8F93000050
:107F7000FB232F4E8E43000030410E4F2F4F0F93A7
:107F80000224AE4F000030412D4F0D9307240C43C7
:107F90000D9E05240C4D2D4D0D93FA2330410C936D
:107FA0000524AC4D00008D4300003041AF4D000072
:107FB000FA3F0E432F4F0F9304241E532F4F0F935E
:107FC000FC230F4E30410E930524AD4E00008E4D24
:107FD000000030410E4DB012347F30410F93022427
:107FE0002F4F30410F4330414576656E74207469E0
:107FF0006D6572000B120A1209120812071206129E
:108000008293A01705208243A2178243A4172D3C18
:10801000B012A8CA064E074F1F42A017384F394F5B
:108020002F82185F0400196F0600088609771F4F1A
:1080300008000F9314243C4F3D4F2F821C5F040017
:108040001D6F06000C860D770A4C0B4D0A880B79C4
:10805000022C084C094D1F4F08000F93EC230658C3
:1080600007698246A2178247A41736413741384133
:1080700039413A413B4130410B120A1209120812B0
:108080000712084F474E094D5E432F4F0F936A2446
:108090003F905A000524884300003F400300653CA0
:1080A0001F434E936224779087FF3424779082FF9A
:1080B00005244E43B8405A000000F23F0A431B42D9
:1080C000A0170B93F6270F4BB0128C7E0F93062050
:1080D0000A4B1B4B08000B93F623EB3F0D4B7E40E6
:1080E00088FF1F4B0A00B012367B0F930324B01297
:1080F0007681EE3F8B430A000A9308249A4B0800CE
:1081000008008B430800B012F47FD83F924B080060
:10811000A017F73F1E42A0170E9303248E990A0062
:1081200016241D42A0170D93C4270B4D8D930800F4
:10813000C0271F4B08008F990A0005240B4F8B9313
:108140000800F723B63F9B4F08000800F83F1F4E7A
:1081500008000E4F0F9303248F990A00F827824FCF
:10816000A017DF3F8243A017A43F37413841394170
:108170003A413B4130413F408012B0129C7B30413C
:108180000B120B4FB01276818B930A000A241F4208
:10819000A0170F9306240F9B0C241F4F08000F936A
:1081A000FA239B4272120A009B42A0170800824BDE
:1081B000A017B012F47F3B4130410B120B4F0F4E12
:1081C0000E4D0D4E0E4F0F4BB0124E7E0F4BB01298
:1081D00080813B4130410B120B4FB0126A7E0F4B36
:1081E000B01280813B4130410B120B4FB012787EB0
:1081F0000F4BB01280813B4130410D4F0F4E0F5F4E
:108200000F7F3FE38D5E00008D6F0200B012F47FA0
:1082100030410E438F930A0001201E430F4E304120
:108220003C4F3D4F2F821C5F04001D6F06000E4C1B
:108230000F4D30413E4F2F4F30411F42A0170F933B
:1082400001241F433041B0123A820F9305241E428D
:10825000A2171F42A41730410E430F4330410B12A7
:108260000B4F1F42A0170B9F14240F9316248F9BB4
:10827000080007241F4F08000F930F248F9B08004E
:10828000F9230F930A249F4B08000800B012F47FD3
:10829000043C924B0800A017F93F8B4308008B4326
:1082A0000A003B4130414374696D65722070726F02
:1082B0006365737300000B120A1209120812071289
:1082C000094F474E084D5E432F4F0F9337243F9081
:1082D0004B000524894300003F400300443C4E937B
:1082E0000324779088FF02241F433D3C1F428C12D9
:1082F000B012E47E0B4F0F9307240F4B2F530F98B0
:1083000008242B4B0B93F9234E43B9404B0000003C
:10831000E63F0E4B1F428C12B012887F1A42721237
:10832000924B0E0072121E4B10000E930320824AD5
:108330007212EA3F1F4B12008E12F93F1F428C123D
:10834000B012E47E0B4F0F930B240F4B2F531D4B9A
:1083500006001E4B0800B012BA812B4B0B93F5237D
:10836000D243A617D13F3741384139413A413B41C9
:108370003041C243A6171F428C12B012DE7E0E435C
:108380003F408E12B012DE7830410B120A120912F1
:1083900008123B400A000B510A4F084D094E2E4B64
:1083A0009A4272120E008A4C10008A4E1200C2933A
:1083B000A61705208A4806008A4908000D3C1B4282
:1083C0007212B2408E1272120F4A2F530D480E498C
:1083D000B012BA81824B72120E4A1F428C12B01236
:1083E000887F0E4A1F428C12B0120A7F38413941F1
:1083F0003A413B4130410B120A120A4FC293A61771
:108400000A241B427212B2408E1272122F53B01203
:10841000D681824B72120E4A1F428C12B012887F94
:108420000E4A1F428C12B0120A7F3A413B41304142
:108430000B120A120A4FC293A6170A241B42721289
:10844000B2408E1272122F53B012E881824B721218
:108450000E4A1F428C12B012887F0E4A1F428C12A5
:10846000B0120A7F3A413B4130410B120B4FC2938D
:10847000A61705208F430A008F430C00033C2F539F
:10848000B0125E820E4B1F428C12B012887F3B41AD
:1084900030410B120B4FC293A61705242B530F4BE1
:1084A000B01212820E3C1F428C12B012E47E0F9367
:1084B00005240F9B05242F4F0F93FB231F43013CE3
:1084C0000F433B4130410D430F4D0F5F0F5F0E4D8A
:1084D0000E5E8E439A2B8F435C2B8F435E2BCD43D6
:1084E0008E2B1D533D900C00EF3B30410B120A12B6
:1084F0000A4FCF938E2B1324B012F0CD0B4F0C4AA2
:108500000C5C0C5C0D4A0D5D3D509A2B2F8D0E4F6F
:108510000F438C5E5C2B8C6F5E2B8D4B00000F4AE3
:108520000F5F0F5F1E4F5C2B1F4F5E2B3A413B418D
:1085300030410E430F4330410F5F0F5F8F4D5C2B77
:108540008F4E5E2B30410B120A1209120A4339403A
:108550008E2B6F4919534F931224B012F0CD0B4F4D
:108560000D4A0D5D0D5D0C4A0C5C1F8C9A2B0E4F55
:108570000F438D5E5C2B8D6F5E2B8C4B9A2B1A53A9
:108580003A900C00E63B39413A413B413041B01250
:10859000E4CD30410B122D420D512D4D0B438293F2
:1085A000A81701201B438F4C02008F4D04008F4EF3
:1085B0000000824FA8171B9303200F4EB01200CE6D
:1085C0000F433B4130411D42A8170D93012030411C
:1085D0008243A8171E4D04000F4D9D1202001F423A
:1085E000A8170F93F4272F4FB01200CEF03FB01210
:1085F00004F53041B012FAF430418F4E00007D5343
:10860000CF4D0200CF430300CF43040030410B1293
:108610000D4F4B4E5C4F03005F4F04000E4C0E8F0E
:108620000F4E5E4D02000FFE0F9E0D242F4D0F5C6E
:10863000CF4B00005F4D03005F535FFD0200CD4F45
:1086400003001F43013C0F433B4130410B120A1210
:108650000D4F5E4F03005C4F04004B4C0E8B5A4F86
:1086600002004F4A0EFF1E9308382F4D0F5B6F4FCD
:108670005C534CFACD4C0400013C3F433A413B4132
:1086800030415F4F02001F5330415D4F03005E4F8A
:1086900004000D8E5F4F02000DFF0F4D30418243ED
:1086A000AC178243AA17F2403000AE171F4298124F
:1086B0003F503000824F6218B0129E883041F24025
:1086C0003000AE1730410B120A120A4F0B4EB01297
:1086D0009E863B90810002283B4080000D4B0E4A55
:1086E0001F426218B0125CC8824BAA170F4B3A4166
:1086F0003B4130410B12B0125C880F931C208293D7
:10870000AC172724B01278880B4F3B5030003C4008
:1087100030000C9B0D341F4298120D4F0D5C1E4211
:10872000AC170E5C0F5EED4F00001C530C9BF33B2F
:108730008243AC170E3CB01278880B4FB01272888F
:108740001C4298123C5030000D4B0E4F0F4CB01293
:108750005CC83B4130410B120C4F5F42AE173B40AF
:1087600030000E4B0E8F1F5298120D4E0E4F0F4CB5
:10877000B0125CC85E42AE170F4B0F8E3B413041CA
:108780000B120B4F5E42AE171F42AA170F8E3F50BF
:1087900030003F90810002280F431F3C3F403000D3
:1087A0000F8E1E5298120D4F0F4BB0125CC81E4216
:1087B00062181E52AC175F42AE170B8F3B50300051
:1087C0001D42AA170F4BB0125CC85F42AE171E4283
:1087D000AA170E8F0F4E3F5030003B4130410B1215
:1087E0000B4F5F42AE170F9B02340F43093CB01290
:1087F0008A880F5B3F908100F82FC28BAE171F4312
:108800003B413041C25FAE1730411E42AA170E9F56
:10881000022C0F433041825FAC170E8F824EAA1795
:108820001F433041824FAA1730411F4298121F52F6
:10883000AC173F50300030415F42AE171F529812C4
:1088400030410B120A120B4F0A4EB0129E86824B19
:108850006218824AAA173A413B4130410E431F42F7
:1088600098123F503000829F621801241E430F4E21
:1088700030411F42621830411F42AA1730417F40E9
:1088800030005F82AE177FF330410B12B0127E884A
:108890004B4FB01278880B5F0F4B3B4130410B12AE
:1088A0000B430F4B0F5F8F43BA2B1B533B901800AA
:1088B000F83B0B430F4B0F5F3F50B22B3E40366BE4
:1088C000B012386B1B532B92F53B3B4130410B12DE
:1088D0000B4E3D4030003E40BA2BB0125CC83D42CA
:1088E0003E40B22B0F4BB0125CC83B4130410B12E3
:1088F0000B4E3D4030000E4F3F40BA2BB0125CC8CB
:108900003D420E4B3F40B22BB0125CC83B41304160
:108910003F409A12B012527D3F40A212B012527DD7
:1089200030410B12B0125C880F9316243F40A21204
:10893000B0128E7D0B4F0F932524B01278888B4F89
:108940000000B01272888B4F02000F4B2F52B012F2
:108950005687CB4F3400163C3F409A12B0128E7DA2
:108960000B4F0F930F242F53B01280878B4F0000B3
:108970000F4B3F50B2000D4B3D5082000E4F0F4D3C
:10898000B012CE880F4B3B4130410D4F3D5082001D
:108990003F50B2000E4F0F4DB012CE8830410B1237
:1089A0000B4F0E4F3F409A12B012127E0F930624C7
:1089B0000E4B3F409A12B012D07D0B3C0E4B3F4005
:1089C000A212B012127E0F9304240E4B3F40A2124B
:1089D000F23F3B4130410B120A120A4F0E4F3F400B
:1089E0009A12B012127E0F930E240F4A2F532E4A62
:1089F000B012C6860F4A3F5082003A50B2000E4A6B
:108A0000B012EE881B3C0E4A3F40A212B012127EFA
:108A10000F931424B0129E862E4A1F4A0200B012F1
:108A2000C6865F4A3400B012DE875B4A34002A52A1
:108A3000B01238880D4B0E4AB0125CC83A413B4127
:108A400030410B120B4F0E4F3F409A12B012127E64
:108A50000F9303240F4B2F530B3C0E4B3F40A2129E
:108A6000B012127E0F9303241F4B0200013C0F43F0
:108A70003B4130412F4F30410D4F4F4E7FF30F5F41
:108A80000D5F3D5082000F4D30410D4F4F4E7FF333
:108A90000F5F0F5D1F4F8200304130410B120A12F1
:108AA0001A4214B21E433F4081008A120F439212B1
:108AB00012B20B4F0E433F4081008A120F4B3A41D6
:108AC0003B4130410B120A121A4214B21E433F407E
:108AD00081008A121F43921212B20B4F0E433F4085
:108AE00081008A120F4B3A413B4130410B120A126E
:108AF0001A42D2B11E433F4081008A120F439212A4
:108B0000D0B10B4F0E433F4081008A120F4B3A41C8
:108B10003B4130410B120A121A42D2B11E433F4070
:108B200081008A120F439212D0B10B4F0E433F4087
:108B300081008A120E4B0F4E0F5F0F7F3FE3B01282
:108B40006CE83C400AD73D40233CB0122EE43C4048
:108B500066663D401EC2B01292E3B01232E10F4E83
:108B60003A413B4130410B120A121A42D2B11E4324
:108B70003F4081008A120F439212D0B10B4F0E4337
:108B80003F4081008A120E4B0F4E0F5F0F7F3FE375
:108B9000B0126CE83C400AD73D40233CB0122EE4B2
:108BA0003C4066663D401EC2B01292E30C433D401D
:108BB0001041B0122EE40C433D40A040B01298E6A4
:108BC0000C433D400042B01292E3B01232E10F4E2E
:108BD0003A413B4130410B120A121A42D2B11E43B4
:108BE0003F4081008A121F439212D0B10B4F0E43B7
:108BF0003F4081008A120F4B3A413B4130410B12FA
:108C00000A1209121A42D2B11E433F4081008A1251
:108C10001F439212D0B10B4F0E433F4081008A1286
:108C20000E4B0F4E0F5F0F7F3FE3B0126CE83C40DE
:108C300054E33D40253DB0122EE40C433D4080C03E
:108C4000B01292E3094E0A4F021232C20343824B22
:108C50003201824B38011F423A0132410E4F0F4E12
:108C60000F5F0F7F3FE3B0126CE83C40A2E73D404E
:108C70003B36B0122EE40C4E0D4F0E490F4AB01287
:108C8000DEE3B01232E10F4E39413A413B4130410F
:108C90000B120A121A4248B21E433F4081008A1248
:108CA0000F43921246B20B4F0E433F4081008A128F
:108CB0000F4B3A413B4130410B124B4F1F42AC121C
:108CC000B012E47E0F930924CF9B020006242F4F9D
:108CD0000F930324CF9B0200FA233B4130410B1238
:108CE0004B4E1F4F0900B012E47E0F930924CF9B17
:108CF000030006242F4F0F930324CF9B0300FA2376
:108D00003B4130410B120A12091239433A431F42C8
:108D1000AC12B012E47E0F931524DF9302000F24EF
:108D20001D4F03001E4F05000D9302200E930724D4
:108D30000B4D0C4E0B890C7A022C094D0A4E2F4F0D
:108D40000F93EB235F43B012B88C0F9304248F4929
:108D500003008F4A050039413A413B4130410B1233
:108D60000A1209120812C293AE128820C24382244A
:108D70003F400B00B01260ED0B4F0F937F24DF4399
:108D800002008F4303008F4305003F5007008B4FC5
:108D900009008B430700B012DE7E0E4B1F42AC125F
:108DA000B0120A7FB012A8CA084E094F4A433F408A
:108DB0000D00B01260ED0E4F0F932424EF4302001C
:108DC000CF4A0300EF4304000C480D493C50001EFD
:108DD0000D638F4C05008F4D07004F4A3F920E2CBC
:108DE0000F5F104FE68DF68D448E4C8E548E5C8E48
:108DF000648E6C8E748EBE409C8A09001F4B0900E5
:108E0000B0120A7F5A537A92D22B3F400700B01219
:108E100060ED0D4F0F931324DF430200CF4A030090
:108E2000EF4304005E420E2B5F420F2B8F100E5F4C
:108E30008D4E05000E4D1F4B0900B0120A7FD24324
:108E4000AE121C3CBE40C48A0900D83FBE40EC8A2A
:108E50000900D43FBE40148B0900D03FBE40668B52
:108E60000900CC3FBE40D68B0900C83FBE40FE8BF8
:108E70000900C43FBE40908C0900C03F38413941D1
:108E80003A413B4130410B120A1209120812084EB6
:108E9000094FC293AE1230241F42AC12B012B27FFF
:108EA0003F90140027243F400B00B01260ED0B4FA1
:108EB0000F9320246A434F4AB012B88C0F930224B8
:108EC0005A53F93FCB4A02008B4803008B490500F7
:108ED0000F4B3F5007008B4F09008B430700B01228
:108EE000DE7E0E4B1F42AC12B0120A7FB012048D10
:108EF0004F4A053C0F43033CB0125E8DCD3F3841D5
:108F000039413A413B4130410B120A12C293AE1231
:108F100027245F932524B012B88C0A4F0F93202486
:108F20001F4A0900B012B27F1F930E381F4A090072
:108F3000B012E47E0B4F0E4F1F4A0900B012887F1B
:108F40000F4BB01238EEEC3F0E4A1F42AC12B0127B
:108F5000887F0F4AB01238EEB012048D1F43013CD7
:108F60000F433A413B4130410B120A120A4FB012F3
:108F7000DE8C0B4F0F9308240E4F1F4A0900B012CE
:108F8000887F0F4BB01238EE3A413B4130410B1213
:108F90000A120912494E4A4D4B4C4E4D1E9319244C
:108FA0002E930724CF4A0200CF490300CF4B040081
:108FB000183C4F4C3F500B00B01260ED0F9307244C
:108FC0008F4309008F4305008F430700EB3F0F439A
:108FD000083C4F4C3F500500B01260ED0F93E22368
:108FE000F63F39413A413B4130410B120A12091216
:108FF0000812071206123B400E000B514A4E474D15
:10900000484C264B7E900900012C5F43B012B88C6F
:10901000094F0F9338244E4AB012DE8C0B4F0F933A
:109020002424CF9702002B244E4A0F49B012688F98
:109030000B430B931A244D471D9312242D930624A2
:109040000E4B1F490900B0120A7F1D3C4F480C4BC4
:109050003C500B000D4F0E460F4CB0125CC8F03F59
:109060004F480C4B3C500500F53F4C484D474E4A8D
:109070000F49B0128E8F0B4F0F93DD23043CCF9816
:109080000400D223D63F36413741384139413A4175
:109090003B4130410B120A124B4E0A4D7E900900A3
:1090A000012C5F43B012B88C0F930A244E4BB012C0
:1090B000DE8C0F930524EF93020002208F4A0900F3
:1090C0003A413B4130410B120A12091208120712B1
:1090D00006124B4E064D7E900900012C5F43B012E4
:1090E000B88C084F0F9335244E4BB012DE8C0B4FCB
:1090F0000F932F240F435E4B02001E9326242E93C2
:109100000424D64B04000000253C074B37500B00CD
:10911000B012A8CA094E0A4F1E8B05001F7B07001C
:109120001C4803001D4805000C8E0D7F042C1F4BAE
:1091300009000F9302200F47E43F8B4905008B4A3B
:1091400007008F128B4F0B00F63F0F4B3F5005006F
:10915000D83F0F4336413741384139413A413B41CD
:1091600030411E4284241E92862408341F428824E3
:109170000F5E6F4F1E53824E8424304192438A24E7
:109180003F4330410B120B4FB01262913F901400DD
:10919000032892438A24073C0F5F9F12B0128B4E24
:1091A00000008B4F02003B4130410B120A120B4F63
:1091B0000A4EB01262913F901400122892438A2402
:1091C000B01262913F901400032892438A24103C0D
:1091D0000F5F9F12B0128A4E00008A4F0200083CB7
:1091E0000F5F9F12B0128B4E00008B4F0200E83FC2
:1091F0003A413B41304131820E410F412F52B01272
:10920000AA910E430F43819304000320819306002B
:1092100008248193000003208193020002241E434E
:109220000F433152304131820E410F412F52B01263
:10923000AA910E430F4381930400092081930600F5
:1092400006208193000003208193020002241E4324
:109250000F433152304131820E410F412F52B01233
:10926000AA911E4104001F4106002E511F610200F9
:109270003152304131820E410F412F52B012AA912A
:109280001E4104001F4106002E811F710200315251
:1092900030410B120A120912081231820E410F419D
:1092A0002F52B012AA911C4104001D4106002A4110
:1092B0001B410200B01254F60E4C0F4D3152384192
:1092C00039413A413B4130410B120A1231820E4181
:1092D0000F412F52B012AA911A4104001B410600FF
:1092E0002C411D410200021232C2B012E6F5324199
:1092F00031523A413B4130410B120A120912081215
:1093000031820E410F412F52B012AA911C4104002C
:109310001D4106002A411B410200B01254F6315291
:10932000384139413A413B4130412182814300007B
:10933000814302000F41B01284910E430F43819389
:10934000000005208193020002201E430F4321529A
:1093500030410B120A1231820E410F412F52B012CE
:10936000AA910A430B431E4104001F4106002C41F1
:109370001D4102000E9C04200F9D02201A430B4346
:109380000E4A0F4B31523A413B4130410B120A1207
:109390000A430B43B01252930FDE0F9302201A437D
:1093A0000B430E4A0F4B3A413B41304131820E4153
:1093B0000F412F52B012AA910E430F431C410400DB
:1093C0001D4106002C811D71020002341E430F4313
:1093D0003152304131820E410F412F52B012AA91C9
:1093E0000E430F432C411D4102001C8104001D71DE
:1093F000060002341E430F43315230410B120A1251
:109400000A430B43B012D4930FDE0F9302201A438A
:109410000B430E4A0F4B3A413B4130410B120A12AB
:109420000A430B43B012AC930FDE0F9302201A4392
:109430000B430E4A0F4B3A413B413041B01262910F
:109440004E4F0F4330410B12B01262910B4F7BF322
:109450008B10B01262910BDF0E4B0F433B4130413A
:10946000B01262914E4F8E110F4E0F5F0F7F3FE390
:1094700030410B12B01262910B4F7BF38B10B01284
:1094800062910BDF0E4B0F4E0F5F0F7F3FE33B41AF
:1094900030412183B01262913F930B240D414E4F16
:1094A0005F428C24B012C6900F9303242E4F0F43BB
:1094B000023C0E430F43215330412183B01262918D
:1094C0003F930C241D4290244E4F0F411C428E248A
:1094D000AC120F9303242E4F0F43023C0E430F4355
:1094E00021533041C24F8C243041824F8E24824E12
:1094F000902430410B120A120D4F82438424C24E35
:109500008624C243872482438A240A430B43824D24
:109510008824B01262913F901400082C0F5F9F12B4
:10952000B01282938A2402200A4E0B4FC2438C242D
:109530008243902482438E240E4A0F4B3A413B4192
:10954000304173636F7065732070726F63657373FE
:1095500000000B120A120B4F0A4E3F40E212B012EB
:10956000527D3F40EA12B012527D1F42F412B012F7
:10957000DE7E1F42F812B012DE7EC243EC2BC243E5
:10958000ED2B8243F22BD243082CC243092C3E40E0
:10959000EA2B1F42F412B0120A7F824B44259B1221
:1095A0000200824A46259A1202000E433F40D8121A
:1095B000B012DE783A413B4130410B120A124B4F58
:1095C0000A4E1F42F812B012E47E0F930624CF9B7E
:1095D000020019242F4F0F93FA233F40EA12B012D2
:1095E0008E7D0E4F0F930F24CF4B0200DF430300FD
:1095F0008F4A04009F42721206001F42F812B012F6
:109600000A7F1F43013C0F433A413B4130410B125B
:10961000B012229D0B4F0F930A240E4F1F42F812D7
:10962000B012887F0E4B3F40EA12B012D07D3B4112
:1096300030410B120A120912081207120612051203
:1096400004123B4012000B51494E474D044C684BED
:10965000554B0200164B0400B012229D0A4F0F9387
:109660000524DF93030002240F433F3C4F47B01211
:10967000829B0F930424DF5306001F43363C4F495F
:10968000B012829B094F0F93EF274F48B012A89951
:109690000B4F0F93E927CF470200DF490200030079
:1096A0008F4A0400DF4306008F460800EF431E0088
:1096B000CF451F00CF4822004F480D4F0E441F4B8F
:1096C0002000B0125CC80F4BB012FC990F4BB012C7
:1096D0000E9B0B123C40549C3D4080000E433F408B
:1096E0004825B0128A831F43215334413541364106
:1096F0003741384139413A413B413041B012829BB8
:109700005F4F1E005FF37FF33041B012829B5F4FCB
:109710001E006FF37FF330410B120A124B4EB01252
:10972000229D0A4F0F930324DF93030018204F4B11
:10973000B012829B0B4F0F931224EFB31E000F2425
:109740001F4F0400DF9A020002000920FB530600AD
:1097500006200F4BB012DA9C0F4BB012469A3A41DA
:109760003B4130410B120A1209120812071206126D
:109770003B400E000B514A4E484D064C674BB01211
:10978000229D4947099303240E493E53FE230F931C
:109790000324DF93030038204F4AB012829B0A4F04
:1097A0000F933224DFB31E002F244F481E4244255E
:1097B0009E120E004F481E4244259E1210000B4F71
:1097C000DF4A02000000DF430100CF480200CF471C
:1097D00003002B523E400E2B0F4BB012386B2B5315
:1097E0000D490E460F4BB0125CC8395006000E49A9
:1097F0004F481D4244259D1212004E485F4A020008
:109800001D4244259D1204003641374138413941FB
:109810003A413B4130410B120A1209120812071259
:10982000094F5F4F01001F9381242F9318382F9306
:10983000B5206F49B012829B0B4F5F490200B012F6
:10984000829B0B93AB240F93A924DF9B02000300A0
:10985000A520EFB31E00A220B012469A9F3C0F93A2
:109860009D206F49B012829B0A4F5F490200B012DF
:10987000829B0B4F0A939224DAB31E008F24074970
:1098800037525E4907000F471D4246259D120400CE
:10989000484F0B931224DB9A020003007F20EBB3A6
:1098A0001E007C2008930320D9B3060004240F4B2C
:1098B000B012D09B733C0F4BCF3F5F490300B012F7
:1098C000229D0A4F0F936A24DF93030067200893B9
:1098D0000320D9B3060062245F490700B012A8999B
:1098E0000B4F0F935B24DF4902000200EF49030096
:1098F0008F4A04009F4904000800CF431E00DF493F
:1099000006001F00DF49070022005F4907000D4FD6
:109910000E471F4B2000B0125CC80F4BB012FC99D1
:1099200008933C240F4BB0120E9B383C6F49B01289
:10993000829B084F0F9332245E4F1E005EB30620B9
:10994000C99302002B24EFB31F002824C9930200FF
:1099500023246EB30320E8B31F0020241F48040013
:10996000DF9303001B201A427212924F06007212FC
:109970001B4F04002952091229825C4902005D49EB
:109980000300395006000E495F4802009B12080090
:10999000824A72122153023C6EB3E02737413841AC
:1099A00039413A413B4130410B120A124A4F3F4084
:1099B000E212B0128E7D0B4F0F930E244F4AB0125D
:1099C00060ED0F9304248B4F20000E4B063C0E4B92
:1099D0003F40E212B012D07D0E430F4E3A413B4160
:1099E00030410B120B4F1F4F2000B01238EE0E4BC0
:1099F0003F40E212B012D07D3B4130410B120A12BF
:109A00000B4FB012D09B0E4B1F42F412B0120A7FC4
:109A10005F4B1E006FF34E4F5F4B02001D4244250B
:109A20009D1206001A4272121F4B0400924F06004C
:109A300072121E4F04005F4B0200AE12824A721275
:109A40003A413B4130410B120B4F3F90EA2B05242A
:109A5000B0125E9A0F4BB012B49A3B4130410B12D8
:109A60000A120912094F1F42F412B012E47E0B4F82
:109A70000A430F931B24DB990200030007240A4BBF
:109A80000B9314242B4B0B93F623103C0F4BB0126B
:109A90005E9A0F4BB012B49A0A9302240B4AEF3F1E
:109AA0001F42F412B012E47E0B4FE93F39413A41B4
:109AB0003B4130410B120A120A4FDFB31E00022451
:109AC000B012489B1B4272121F4A0400924F0600BC
:109AD00072121E4F04005F4A02009E120200824B67
